:100000000C942A000C9434000C9434000C943400AA
:100010000C9434000C9434000C9434000C94340090
:100020000C9434000C9434000C9434000C94340080
:100030000C9434000C9434000C9434000C94340070
:100040000C9434000C9434000C9434000C94340060
:100050000C94340011241FBECFE5D8E0DEBFCDBF25
:100060000E94CA010C9401020C9400005298579807
:1000700056985598599883E389B9539A549886E0CD
:1000800080BD08958CB95D9BFECF08955F9BFECF28
:100090005F9A8CB190E008956830A0F5413099F5F1
:1000A000823099F018F4813031F008958330B9F03E
:1000B0008430F9F008958AB321E030E001C0220FC6
:1000C0006A95EAF7822B8ABB089587B321E030E076
:1000D00001C0220F6A95EAF7822B87BB089584B38B
:1000E00021E030E001C0220F6A95EAF7822B84BB41
:1000F000089581B321E030E001C0220F6A95EAF74C
:10010000822B81BB08954111FDCF823099F018F404
:10011000813031F008958330B9F08430F9F00895DA
:100120002AB381E090E001C0880F6A95EAF78095D4
:100130008223C9CF27B381E090E001C0880F6A9580
:10014000EAF780958223C9CF24B381E090E001C013
:10015000880F6A95EAF780958223C9CF21B381E0A1
:1001600090E001C0880F6A95EAF780958223C9CF95
:100170006830A0F5413099F5823099F018F481305B
:1001800031F008958330B9F08430F9F008958BB3DD
:1001900021E030E001C0220F6A95EAF7822B8BBB89
:1001A000089588B321E030E001C0220F6A95EAF794
:1001B000822B88BB089585B321E030E001C0220F77
:1001C0006A95EAF7822B85BB089582B321E030E07F
:1001D00001C0220F6A95EAF7822B82BB0895411174
:1001E000FDCF823099F018F4813031F008958330DA
:1001F000B9F08430F9F008952BB381E090E001C0AC
:10020000880F6A95EAF780958223C9CF28B381E0E9
:1002100090E001C0880F6A95EAF780958223C9CFE4
:1002200025B381E090E001C0880F6A95EAF78095D8
:100230008223C9CF22B381E090E001C0880F6A9584
:10024000EAF780958223C9CF683028F48230A9F07C
:1002500020F4813041F0892F0895833081F084307B
:10026000D1F780B301C089B390E002C0959587951E
:100270006A95E2F7982F9170EECF86B3F5CF83B3EE
:10028000F3CF683090F5823099F018F4813031F076
:1002900008958330B9F08430F9F008958BB321E0EC
:1002A00030E001C0220F6A95EAF782278BBB0895E0
:1002B00088B321E030E001C0220F6A95EAF7822777
:1002C00088BB089585B321E030E001C0220F6A9514
:1002D000EAF7822785BB089582B321E030E001C0B0
:1002E000220F6A95EAF7822782BB0895823059F07F
:1002F00018F4813031F00895833039F0843039F0CA
:1003000008956ABB089567BB089564BB089561BBF7
:100310000895823059F018F4813031F00895833017
:1003200039F0843039F008956BBB089568BB0895A7
:1003300065BB089562BB0895823069F018F481307E
:1003400031F00895833059F0843069F008958BB30B
:1003500080958BBB089588B3809588BB089585B33D
:10036000809585BB089582B3809582BB08958230C5
:1003700069F020F4813041F0892F0895833041F0F5
:100380008430D1F790B3F8CF99B3F6CF96B3F4CFCA
:1003900093B3F2CF40E060E081E00E944C0040E087
:1003A00066E081E00E944C0041E060E081E00E9454
:1003B000B80041E066E081E00E94B80041E061E001
:1003C00084E00E944C000E94360060E081E00E94C0
:1003D0002401C82F66E081E00E942401C13039F475
:1003E00081110CC081E490E00E944200EECFC11167
:1003F00005C0813019F487E490E0F6CF83E490E003
:06040000F3CFF894FFCFDA
:00000001FF
