:1000000020E0A0E6B0E001C01D92A936B207E1F7FA
:100010000F931F93CF93DF93CDB7DEB7C654D109AB
:100020000FB6F894DEBF0FBECDBF41E060E084E0C4
:100030007BD641E061E084E077D641E062E084E095
:1000400073D66FEF82E0EAD880E090E0ACE0B2E4F3
:1000500089AF9AAFABAFBCAF20E030E04AE753E4E2
:1000600069AD7AAD8BAD9CAD0BDAB92FA82F972F68
:10007000862F2C2F3D2F235C3F4FE22FF32F8083C1
:100080009183A283B38320E030E040E85FE38C2FCC
:100090009D2FCD96E82FF92F608171818281938108
:1000A0006DD988235CF48C2F9D2F8F5B9F4F21E0AF
:1000B00030E0E82FF92F318320837FC020E03FEF2D
:1000C0004FE757E48C2F9D2FCD96E82FF92F6081B5
:1000D000718182819381D0D918160CF058C020E02C
:1000E00030E040E251E469AD7AAD8BAD9CADC8D94A
:1000F000B92FA82F972F862F0C2F1D2F0F5B1F4F67
:10010000682F792F8A2F9B2F3DD9B92FA82F972F92
:10011000862FE02FF12F918380832EC08C2F9D2F6F
:100120008D5B9F4F29E130E0E82FF92F3183208349
:100130008C2F9D2F8D5B9F4FE82FF92F8081918110
:100140000197F1F72C2F3D2F2D5B3F4FE22FF32F1F
:10015000918380838C2F9D2F8F5B9F4F2C2F3D2F62
:100160002F5B3F4FE22FF32F208131812150310946
:10017000E82FF92F318320838C2F9D2F8F5B9F4F8A
:10018000E82FF92F80819181892B41F638C00C2FFF
:100190001D2F0F5B1F4F8C2F9D2FCD96E82FF92F12
:1001A0006081718182819381EDD8B92FA82F972F1B
:1001B000862FE02FF12F918380838C2F9D2F8B5BD7
:1001C0009F4F2C2F3D2F2F5B3F4FE22FF32F20818E
:1001D0003181E82FF92F318320838C2F9D2F8B5B6A
:1001E0009F4FE82FF92F808191810197F1F72C2FF4
:1001F0003D2F2B5B3F4FE22FF32F9183808388E3CA
:10020000EBD180E090E0A0E8BFE38BA79CA7ADA76F
:10021000BEA720E030E04AE753E46BA57CA58DA59E
:100220009EA52ED9B92FA82F972F862F8FA798ABD1
:10023000A9ABBAAB20E030E040E85FE36FA578A956
:1002400089A99AA99BD888232CF481E090E09CABE3
:100250008BAB43C020E03FEF4FE757E46FA578A991
:1002600089A99AA909D918166CF520E030E040E276
:1002700051E46BA57CA58DA59EA502D9B92FA82F09
:10028000972F862F682F792F8A2F9B2F7BD8B92FF6
:10029000A82F972F862F9CAB8BAB0FC089E190E0E6
:1002A0009EAB8DAB8DA99EA90197F1F79EAB8DAB4F
:1002B0008BA99CA901979CAB8BAB8BA99CA9892B83
:1002C00069F715C06FA578A989A99AA95BD8B92F34
:1002D000A82F972F862F9CAB8BAB8BA99CA998AF8F
:1002E0008FAB8FA998AD0197F1F798AF8FAB8EE0E8
:1002F00073D180E090E0A0E8BFE38D8F9E8FAF8F39
:10030000B8A320E030E04AE753E46D8D7E8D8F8DF9
:1003100098A1B6D8B92FA82F972F862F89A39AA373
:10032000ABA3BCA320E030E040E85FE369A17AA181
:100330008BA19CA123D888232CF481E090E09EA37C
:100340008DA343C020E03FEF4FE757E469A17AA1B6
:100350008BA19CA191D818166CF520E030E040E20A
:1003600051E46D8D7E8D8F8D98A18AD8B92FA82FDD
:10037000972F862F682F792F8A2F9B2F03D8B92F7D
:10038000A82F972F862F9EA38DA30FC089E190E001
:1003900098A78FA38FA198A50197F1F798A78FA38E
:1003A0008DA19EA101979EA38DA38DA19EA1892BB6
:1003B00069F715C069A17AA18BA19CA1E3D7B92FD8
:1003C000A82F972F862F9EA38DA38DA19EA19AA7BC
:1003D00089A789A59AA50197F1F79AA789A781E02E
:1003E000FBD080E090E0A0E0B0E48F87988BA98BF1
:1003F000BA8B20E030E04AE753E46F857889898939
:100400009A893ED8B92FA82F972F862F8B8B9C8B3C
:10041000AD8BBE8B20E030E040E85FE36B897C89E8
:100420008D899E89ABD788232CF481E090E0988F4A
:100430008F8B43C020E03FEF4FE757E46B897C8907
:100440008D899E8919D818166CF520E030E040E2BD
:1004500051E46F85788989899A8912D8B92FA82F94
:10046000972F862F682F792F8A2F9B2F8BD7B92F05
:10047000A82F972F862F988F8F8B0FC089E190E040
:100480009A8F898F898D9A8D0197F1F79A8F898F2D
:100490008F89988D0197988F8F8B8F89988D892B55
:1004A00069F715C06B897C898D899E896BD7B92FB7
:1004B000A82F972F862F988F8F8B8F89988D9C8F41
:1004C0008B8F8B8D9C8D0197F1F79C8F8B8F86E0A6
:1004D00083D080E090E0A0E8BFE389839A83AB8378
:1004E000BC8320E030E04AE753E469817A818B8164
:1004F0009C81C6D7B92FA82F972F862F8D839E83D7
:10050000AF83B88720E030E040E85FE36D817E8113
:100510008F81988533D788232CF481E090E09A87E7
:10052000898743C020E03FEF4FE757E46D817E812C
:100530008F819885A1D718166CF520E030E040E255
:1005400051E469817A818B819C819AD7B92FA82F38
:10055000972F862F682F792F8A2F9B2F13D7B92F8C
:10056000A82F972F862F9A8789870FC089E190E05F
:100570009C878B878B859C850197F1F79C878B8760
:1005800089859A8501979A87898789859A85892B94
:1005900069F715C06D817E818F819885F3D6B92F5B
:1005A000A82F972F862F9A87898789859A859E8776
:1005B0008D878D859E850197F1F79E878D87000039
:1005C000CA5BDF4F0FB6F894DEBF0FBECDBFDF9121
:1005D000CF911F910F910895CF93DF931F92CDB7C5
:1005E000DEB7898340E060E084E0A4D440E061E0CD
:1005F00084E0A0D441E062E084E09CD4698182E0A0
:1006000048D640E062E084E095D400000F90DF918E
:10061000CF910895CF93DF931F92CDB7DEB7898333
:1006200041E060E084E086D440E061E084E082D490
:1006300041E062E084E07ED4698182E02AD640E035
:1006400062E084E077D400000F90DF91CF910895AD
:10065000CF93DF9300D01F92CDB7DEB79B838A8301
:1006600019828A819B81892BD9F00EC08981882FBC
:1006700090E02A813B81820F931FE82FF92F808120
:10068000C9DF89818F5F89838981882F90E02A81E2
:100690003B81820F931FE82FF92F8081882331F748
:1006A00000000F900F900F90DF91CF910895CF939E
:1006B000DF93CDB7DEB761970FB6F894DEBF0FBEFC
:1006C000CDBF888B698B19828889882F90E0813013
:1006D000910519F0029721F007C08989898304C028
:1006E0008989805C898300008981805875DF80E07A
:1006F00090E0A0E8BFE38A839B83AC83BD8320E0C6
:1007000030E04AE753E46A817B818C819D81B8D6D1
:10071000B92FA82F972F862F8E839F83A887B987FD
:1007200020E030E040E85FE36E817F818885998535
:1007300025D688232CF481E090E09B878A8743C0EC
:1007400020E03FEF4FE757E46E817F8188859985F0
:1007500093D618166CF520E030E040E251E46A814F
:100760007B818C819D818CD6B92FA82F972F862FC6
:10077000682F792F8A2F9B2F05D6B92FA82F972F57
:10078000862F9B878A870FC089E190E09D878C87A1
:100790008C859D850197F1F79D878C878A859B8540
:1007A00001979B878A878A859B85892B69F715C066
:1007B0006E817F8188859985E5D5B92FA82F972FE0
:1007C000862F9B878A878A859B859F878E878E85C4
:1007D0009F850197F1F79F878E87000061960FB67E
:1007E000F894DEBF0FBECDBFDF91CF910895CF93B8
:1007F000DF931F92CDB7DEB740E060E082E094D295
:1008000041E060E082E096D341E060E081E08CD29C
:1008100041E065E081E088D2C2D160D281E0898385
:1008200060E082E08DD489838981882329F441E0C6
:1008300060E081E07FD3F4CF40E060E081E07AD3F4
:10084000EFCFCF93DF93CDB7DEB7809160008823E1
:1008500041F481E08093600041E065E081E06AD38B
:1008600006C01092600040E065E081E063D30000C4
:10087000DF91CF910895CF93DF931F92CDB7DEB76D
:10088000898300000F90DF91CF910895CF93DF937C
:100890001F92CDB7DEB7898300000F90DF91CF9113
:1008A0000895CF93DF931F92CDB7DEB789838981F7
:1008B000823061F484E590E0E82FF92F208184E50F
:1008C00090E02F7BE82FF92F20830EC089818330A1
:1008D00059F484E590E0E82FF92F208184E590E039
:1008E0002064E82FF92F20838BE590E0E82FF92F83
:1008F00020818BE590E02062E82FF92F2083000013
:100900000F90DF91CF910895CF93DF93CDB7DEB7EE
:1009100086E290E0E82FF92F208186E290E0277FA1
:10092000E82FF92F208386E290E0E82FF92F20812D
:1009300086E290E02F7DE82FF92F208387E290E078
:10094000E82FF92F208187E290E02F77E82FF92F09
:10095000208387E290E0E82FF92F208187E290E062
:100960002064E82FF92F208387E290E0E82FF92F09
:10097000208187E290E02F7DE82FF92F208386E207
:1009800090E0E82FF92F208186E290E02160E82FA7
:10099000F92F208386E290E0E82FF92F208186E26C
:1009A00090E02260E82FF92F208386E290E0E82F84
:1009B000F92F208186E290E02B7FE82FF92F20830A
:1009C00086E290E0E82FF92F208186E290E020680F
:1009D000E82FF92F20830000DF91CF910895CF9366
:1009E000DF931F92CDB7DEB78983898187708983B2
:1009F00087E290E0E82FF92F308187E290E02981AB
:100A0000232BE82FF92F208386E290E0E82FF92F9F
:100A1000208186E290E02064E82FF92F20830000F7
:100A200086E290E0E82FF92F808182958F70882FE1
:100A300090E081709927892B99F386E290E0E82F66
:100A4000F92F208186E290E02061E82FF92F2083A2
:100A500084E290E0E82FF92F808191810F90DF915F
:100A6000CF910895CF93DF93CDB7DEB783E590E0C4
:100A7000E82FF92F208183E590E02F7BE82FF92FD5
:100A8000208383E590E0E82FF92F208183E590E033
:100A9000277FE82FF92F208382E590E020ECE82FD4
:100AA000F92F208389E590E0E82FF92F208189E54F
:100AB00090E02160E82FF92F208383E590E0E82F74
:100AC000F92F208183E590E0287FE82FF92F2083FC
:100AD00083E590E0E82FF92F208183E590E0216005
:100AE000E82FF92F20830000DF91CF9108951F9206
:100AF0000F920FB60F9211242F933F934F935F9352
:100B00006F937F938F939F93AF93BF93EF93FF93D5
:100B1000CF93DF93CDB7DEB78091610090916200F3
:100B2000A0916300B09164000196A11DB11D809356
:100B3000610090936200A0936300B0936400809181
:100B4000610090916200A0916300B09164008334D1
:100B50009F40A105B10579F474DE82E590E020ECB8
:100B6000E82FF92F208310926100109262001092FA
:100B70006300109264000000DF91CF91FF91EF912C
:100B8000BF91AF919F918F917F916F915F914F91A5
:100B90003F912F910F900FBE0F901F901895CF93FC
:100BA000DF93CDB7DEB783E590E0E82FF92F208102
:100BB00083E590E02F7BE82FF92F208383E590E0F9
:100BC000E82FF92F208183E590E02860E82FF92FA6
:100BD00020838CE590E02AEFE82FF92F208389E528
:100BE00090E0E82FF92F208189E590E02260E82F3E
:100BF000F92F208383E590E0E82FF92F208183E50A
:100C000090E0287FE82FF92F208383E590E0E82FFC
:100C1000F92F208183E590E02160E82FF92F2083D0
:100C20000000DF91CF9108951F920F920FB60F929F
:100C300011242F933F934F935F936F937F938F93E1
:100C40009F93AF93BF93EF93FF93CF93DF93CDB772
:100C5000DEB78091650090916600A0916700B09129
:100C600068000196A11DB11D8093650090936600F8
:100C7000A0936700B0936800809165009091660032
:100C8000A0916700B0916800803A9F40A105B1052E
:100C900049F4D7DD1092650010926600109267004B
:100CA000109268000000DF91CF91FF91EF91BF910A
:100CB000AF919F918F917F916F915F914F913F91F4
:100CC0002F910F900FBE0F901F901895CF93DF9329
:100CD000CDB7DEB70000DF91CF910895CF93DF93BA
:100CE000CDB7DEB78FE590E0E82FF92F20818FE5B3
:100CF00090E02068E82FF92F20830000DF91CF914A
:100D00000895CF93DF93CDB7DEB78FE590E0E82F5E
:100D1000F92F20818FE590E02F77E82FF92F20839E
:100D20000000DF91CF910895CF93DF9300D01F9201
:100D3000CDB7DEB789836A834B838A81883008F018
:100D4000F2C08B81813009F073C08981882F90E0D7
:100D50008230910529F1833091051CF4019741F00F
:100D6000E2C083309105A1F1049709F449C0DBC0CA
:100D70008AE390E0E82FF92F8081482F8A81282F7D
:100D800030E081E090E002C0880F991F2A95E2F7D9
:100D9000242F282B8AE390E0E82FF92F2083C3C06B
:100DA00087E390E0E82FF92F8081482F8A81282F50
:100DB00030E081E090E002C0880F991F2A95E2F7A9
:100DC000242F282B87E390E0E82FF92F2083ABC056
:100DD00084E390E0E82FF92F8081482F8A81282F23
:100DE00030E081E090E002C0880F991F2A95E2F779
:100DF000242F282B84E390E0E82FF92F208393C041
:100E000081E390E0E82FF92F8081482F8A81282FF5
:100E100030E081E090E002C0880F991F2A95E2F748
:100E2000242F282B81E390E0E82FF92F20837BC02B
:100E30008B81882309F077C08981882F90E08230E8
:100E4000910531F1833091051CF4019741F06BC09D
:100E500083309105B1F1049709F44CC064C08AE372
:100E600090E0E82FF92F8081482F8A81282F30E0E9
:100E700081E090E002C0880F991F2A95E2F78095E3
:100E8000242F28238AE390E0E82FF92F20834BC0FA
:100E900087E390E0E82FF92F8081482F8A81282F5F
:100EA00030E081E090E002C0880F991F2A95E2F7B8
:100EB0008095242F282387E390E0E82FF92F2083C3
:100EC00032C084E390E0E82FF92F8081482F8A8197
:100ED000282F30E081E090E002C0880F991F2A950A
:100EE000E2F78095242F282384E390E0E82FF92F60
:100EF000208319C081E390E0E82FF92F8081482FEB
:100F00008A81282F30E081E090E002C0880F991F8D
:100F10002A95E2F78095242F282381E390E0E82F9B
:100F2000F92F2083000000000F900F900F90DF91A9
:100F3000CF910895CF93DF9300D01F92CDB7DEB746
:100F400089836A834B838A81883008F0F2C08B8161
:100F5000813009F073C08981882F90E0823091053B
:100F600029F1833091051CF4019741F0E2C08330F0
:100F70009105A1F1049709F449C0DBC08BE390E02F
:100F8000E82FF92F8081482F8A81282F30E081E0D7
:100F900090E002C0880F991F2A95E2F7242F282B92
:100FA0008BE390E0E82FF92F2083C3C088E390E023
:100FB000E82FF92F8081482F8A81282F30E081E0A7
:100FC00090E002C0880F991F2A95E2F7242F282B62
:100FD00088E390E0E82FF92F2083ABC085E390E011
:100FE000E82FF92F8081482F8A81282F30E081E077
:100FF00090E002C0880F991F2A95E2F7242F282B32
:1010000085E390E0E82FF92F208393C082E390E0FE
:10101000E82FF92F8081482F8A81282F30E081E046
:1010200090E002C0880F991F2A95E2F7242F282B01
:1010300082E390E0E82FF92F20837BC08B81882307
:1010400009F077C08981882F90E08230910531F1D5
:10105000833091051CF4019741F06BC083309105FA
:10106000B1F1049709F44CC064C08BE390E0E82F21
:10107000F92F8081482F8A81282F30E081E090E08D
:1010800002C0880F991F2A95E2F78095242F282304
:101090008BE390E0E82FF92F20834BC088E390E0AA
:1010A000E82FF92F8081482F8A81282F30E081E0B6
:1010B00090E002C0880F991F2A95E2F78095242FAF
:1010C000282388E390E0E82FF92F208332C085E3BE
:1010D00090E0E82FF92F8081482F8A81282F30E077
:1010E00081E090E002C0880F991F2A95E2F7809571
:1010F000242F282385E390E0E82FF92F208319C0BF
:1011000082E390E0E82FF92F8081482F8A81282FF1
:1011100030E081E090E002C0880F991F2A95E2F745
:101120008095242F282382E390E0E82FF92F208355
:10113000000000000F900F900F90DF91CF91089565
:10114000CF93DF9300D01F92CDB7DEB78A836B8336
:101150008B81883008F05AC08A81882F90E08230D5
:101160009105F1F0833091051CF4019739F04FC0DF
:101170008330910539F10497B9F149C089E390E0D2
:10118000E82FF92F8081882F90E02B81222F30E0EB
:1011900002C0959587952A95E2F78170898337C0BB
:1011A00086E390E0E82FF92F8081882F90E02B8153
:1011B000222F30E002C0959587952A95E2F781703D
:1011C000898325C083E390E0E82FF92F8081882F61
:1011D00090E02B81222F30E002C0959587952A95CB
:1011E000E2F78170898313C080E390E0E82FF92F44
:1011F0008081882F90E02B81222F30E002C09595CE
:1012000087952A95E2F78170898301C00000898162
:101210000F900F900F90DF91CF910895CF93DF93B0
:1012200000D0CDB7DEB789836A838981882F90E0AB
:101230008230910599F0833091051CF4019739F0C3
:1012400022C08330910589F00497B1F01CC08AE375
:1012500090E02A81E82FF92F208315C087E390E0E2
:101260002A81E82FF92F20830EC084E390E02A81A1
:10127000E82FF92F208307C081E390E02A81E82F2F
:10128000F92F2083000000000F900F90DF91CF9185
:101290000895CF93DF9300D0CDB7DEB789836A83FB
:1012A0008981882F90E08230910599F083309105F3
:1012B0001CF4019739F022C08330910589F004971E
:1012C000B1F01CC08BE390E02A81E82FF92F208336
:1012D00015C088E390E02A81E82FF92F20830EC003
:1012E00085E390E02A81E82FF92F208307C082E36D
:1012F00090E02A81E82FF92F2083000000000F9052
:101300000F90DF91CF910895CF93DF9300D0CDB7A9
:10131000DEB78A838A81882F90E08230910599F028
:10132000833091051CF4019739F022C08330910578
:1013300089F00497B1F01CC089E390E0E82FF92F01
:101340008081898315C086E390E0E82FF92F8081A2
:1013500089830EC083E390E0E82FF92F8081898391
:1013600007C080E390E0E82FF92F80818983000097
:1013700089810F900F90DF91CF9108952FD008F4BD
:1013800081E0089557D088F09F5790F0B92F9927A2
:10139000B751A0F0D1F0660F771F881F991F1AF080
:1013A000BA95C9F712C0B13081F05ED0B1E00895AE
:1013B0005BC0672F782F8827B85F39F0B93FCCF32F
:1013C000869577956795B395D9F73EF49095809576
:1013D000709561957F4F8F4F9F4F0895990F00082B
:1013E000550FAA0BE0E8FEEF16161706E807F907F7
:1013F000C0F012161306E407F50798F0621B730B92
:10140000840B950B39F40A2661F0232B242B252B12
:1014100021F408950A2609F4A140A6958FEF811DB5
:10142000811D089557FD9058440F551F59F05F3F97
:1014300071F04795880F97FB991F61F09F3F79F0F6
:1014400087950895121613061406551FF2CF469578
:10145000F1DF08C0161617061806991FF1CF8695FA
:101460007105610508940895E894BB2766277727DE
:10147000862F972F97F90895B1DF08F48FEF08951D
:101480000AD080C071D028F076D018F0952309F0EA
:1014900062C067C0EACFC6DFA8F39923D9F355230A
:1014A000C9F3950F50E0551FAA27EE27FF27BB274A
:1014B00000240894679520F4E20FF31FB41F0A1E5E
:1014C000220F331F441FAA1F6695A9F7779530F4A2
:1014D000F30FB41F0A1E121E08F46395330F441F46
:1014E000AA1F221F769599F7879520F4B40F0A1E3C
:1014F000121E631F440FAA1F221F331F8695A9F7D0
:10150000862F712D602D11249F5750408AF0E1F0F5
:1015100088234AF0EE0FFF1FBB1F661F771F881F2F
:1015200091505040A9F79E3F510570F014C09DCFD7
:101530005F3FECF3983EDCF3869577956795B7951A
:10154000F795E7959F5FC1F7FE2B880F911D969544
:10155000879597F9089597F99F6780E870E060E0B4
:1015600008959FEF80EC089500240A94161617063C
:1015700018060906089500240A9412161306140684
:1015800005060895092E0394000C11F4882352F0E7
:10159000BB0F40F4BF2B11F460FF04C06F5F7F4F9F
:0615A0008F4F9F4F0895DC
:00000001FF
