:100000000C942A000C943C000C943C000C943C0092
:100010000C943C000C943C000C943C000C943C0070
:100020000C943C000C943C000C947B010C94230138
:100030000C943C000C943C000C943C000C943C0050
:100040000C943C000C943C000C943C000C943C0040
:100050000C943C0011241FBECFE5D8E0DEBFCDBF1D
:1000600020E0A0E6B0E001C01D92A936B207E1F79A
:100070000E94F6020C941A030C9400008091600018
:10008000811107C081E08093600041E065E00C943D
:1000900034021092600040E065E081E0F8CFCF9339
:1000A000C82F40E060E084E00E94340240E061E05C
:1000B00084E00E94340241E062E084E00E94340265
:1000C0006C2F82E00E94D00240E062E084E0CF9199
:1000D0000C94340241E060E084E00E94C80141E0F9
:1000E00061E084E00E94C80141E062E084E00E9497
:1000F000C8016FEF82E00E94BD022FEB8AED90E015
:10010000215080409040E1F700C0000088E30E9449
:100110004F008FEC97E00197F1F700C000008EE0F0
:100120000E944F008FEC97E00197F1F700C00000AC
:1001300081E00E944F008FE99FE00197F1F700C036
:10014000000086E00E944F008FEC97E00197F1F7E6
:1001500000C000000895CF93C82F41E060E084E024
:100160000E94340240E061E084E00E94340241E0F9
:1001700062E084E00E9434026C2F82E00E94D00290
:1001800040E062E084E0CF910C9434021F93CF935F
:10019000DF93EC0110E0892B39F4DF91CF911F91AF
:1001A00008950E94AB001F5FFE01E10FF11D8081E9
:1001B0008111F7CFF2CF813021F0605C823009F0FD
:1001C00060E080E8860F0E944F008FEC97E0019777
:1001D000F1F700C00000089508950895823039F4C1
:1001E00084B78F7B84BF8BB780628BBF08958330C9
:1001F000D1F784B78064F6CF339835983F983E9A0C
:100200003D98309A319A3298379A089597B187700D
:10021000892B87B9369A349BFECF349A84B195B135
:10022000089583B78F7B83BF83B7877F83BF80ECBD
:1002300082BF89B7816089BF83B7887F83BF83B757
:10024000816083BF08951F920F920FB60F92112401
:100250002F933F934F935F936F937F938F939F93CE
:10026000AF93BF93EF93FF938091650090916600E9
:10027000A0916700B09168000196A11DB11D809307
:10028000650090936600A0936700B0936800833484
:100290009F40A105B10561F40E943E0080EC82BF41
:1002A000109265001092660010926700109268002C
:1002B000FF91EF91BF91AF919F918F917F916F913E
:1002C0005F914F913F912F910F900FBE0F901F9014
:1002D000189583B78F7B83BF83B7886083BF8AEF0E
:1002E0008CBF89B7826089BF83B7887F83BF83B79C
:1002F000816083BF08951F920F920FB60F92112451
:100300002F933F934F935F936F937F938F939F931D
:10031000AF93BF93EF93FF93809161009091620040
:10032000A0916300B09164000196A11DB11D80935E
:10033000610090936200A0936300B0936400803AE0
:100340009F40A105B10551F40E943E00109261004A
:10035000109262001092630010926400FF91EF917E
:10036000BF91AF919F918F917F916F915F914F91CD
:100370003F912F910F900FBE0F901F9018950895E9
:100380008FB780688FBF08958FB78F778FBF08951D
:100390006830A0F5413099F5823099F018F4813039
:1003A00031F008958330B9F08430F9F008958AB3BC
:1003B00021E030E001C0220F6A95EAF7822B8ABB68
:1003C000089587B321E030E001C0220F6A95EAF773
:1003D000822B87BB089584B321E030E001C0220F57
:1003E0006A95EAF7822B84BB089581B321E030E05F
:1003F00001C0220F6A95EAF7822B81BB0895411153
:10040000FDCF823099F018F4813031F008958330B7
:10041000B9F08430F9F008952AB381E090E001C08A
:10042000880F6A95EAF780958223C9CF27B381E0C8
:1004300090E001C0880F6A95EAF780958223C9CFC2
:1004400024B381E090E001C0880F6A95EAF78095B7
:100450008223C9CF21B381E090E001C0880F6A9563
:10046000EAF780958223C9CF6830A0F5413099F52D
:10047000823099F018F4813031F008958330B9F06A
:100480008430F9F008958BB321E030E001C0220FF1
:100490006A95EAF7822B8BBB089588B321E030E0A0
:1004A00001C0220F6A95EAF7822B88BB089585B3B5
:1004B00021E030E001C0220F6A95EAF7822B85BB6C
:1004C000089582B321E030E001C0220F6A95EAF777
:1004D000822B82BB08954111FDCF823099F018F430
:1004E000813031F008958330B9F08430F9F0089507
:1004F0002BB381E090E001C0880F6A95EAF7809500
:100500008223C9CF28B381E090E001C0880F6A95AB
:10051000EAF780958223C9CF25B381E090E001C03E
:10052000880F6A95EAF780958223C9CF22B381E0CC
:1005300090E001C0880F6A95EAF780958223C9CFC1
:10054000683028F48230A9F020F4813041F0892FFE
:100550000895833081F08430D1F780B301C089B32E
:1005600090E002C0959587956A95E2F7982F917073
:10057000EECF86B3F5CF83B3F3CF823059F018F4C2
:10058000813031F00895833039F0843039F00895A6
:100590006ABB089567BB089564BB089561BB089565
:1005A000823059F018F4813031F00895833039F0F9
:1005B000843039F008956BBB089568BB089565BB1E
:1005C000089562BB0895823069F020F4813041F0D3
:1005D000892F0895833041F08430D1F790B3F8CF5C
:1005E00099B3F6CF96B3F4CF93B3F2CF40E060E087
:1005F00082E00E94C80141E060E082E00E94340293
:1006000041E060E081E00E94C80141E065E081E0F6
:100610000E94C8010E9469010E94C00160E082E05E
:100620000E94A00241E0811140E060E081E00E9470
:080630003402F4CFF894FFCF6F
:00000001FF
