:100000000C942A000C943F000C943F000C943F0089
:100010000C943F000C943F000C943F000C943F0064
:100020000C943F000C943F000C943F000C943F0054
:100030000C943F000C943F000C943F000C943F0044
:100040000C943F000C943F000C943F000C943F0034
:100050000C943F0011241FBECFE5D8E0DEBFCDBF1A
:1000600010E0A0E6B0E0E2E7F5E002C005900D92F6
:10007000A638B107D9F70E9473020C94B7020C940A
:100080000000CF93C82F40E060E081E00E94610152
:1000900040E061E081E00E94610141E062E081E0D6
:1000A0000E9461016C2F83E00E94320240E062E016
:1000B00081E0CF910C94610141E060E081E00E9419
:1000C000F50041E061E081E00E94F50041E062E07E
:1000D00081E00E94F5006FEF83E00E941F022FEB8A
:1000E0008AED90E0215080409040E1F700C0000090
:1000F00088E30E9441008FEC97E00197F1F700C080
:1001000000008EE00E9441008FEC97E00197F1F72C
:1001100000C0000081E00E9441008FE99FE001974C
:10012000F1F700C0000086E00E9441008FEC97E0EC
:100130000197F1F700C000000895CF93C82F41E068
:1001400060E081E00E94610140E061E081E00E94A6
:10015000610141E062E081E00E9461016C2F83E077
:100160000E94320240E062E081E0CF910C94610194
:100170001F93CF93DF93EC0110E0892B39F4DF91CB
:10018000CF911F9108950E949D001F5FFE01E10F16
:10019000F11D80818111F7CFF2CF813021F0605CB9
:1001A000823009F060E080E8860F0E9441008FEC09
:1001B00097E00197F1F700C0000008955298579812
:1001C00056985598599883E389B9549A539886E07C
:1001D00080BD08958CB95D9BFECF5D9A08955F9BAD
:1001E000FECF8CB15F9A90E008956830A0F5413061
:1001F00099F5823099F018F4813031F00895833008
:10020000B9F08430F9F008958AB321E030E001C0FC
:10021000220F6A95EAF7822B8ABB089587B321E003
:1002200030E001C0220F6A95EAF7822B87BB089560
:1002300084B321E030E001C0220F6A95EAF7822BF7
:1002400084BB089581B321E030E001C0220F6A959C
:10025000EAF7822B81BB08954111FDCF823099F0DE
:1002600018F4813031F008958330B9F08430F9F01A
:1002700008952AB381E090E001C0880F6A95EAF7FB
:1002800080958223C9CF27B381E090E001C0880F19
:100290006A95EAF780958223C9CF24B381E090E084
:1002A00001C0880F6A95EAF780958223C9CF21B3F0
:1002B00081E090E001C0880F6A95EAF7809582237B
:1002C000C9CF6830A0F5413099F5823099F018F423
:1002D000813031F008958330B9F08430F9F0089519
:1002E0008BB321E030E001C0220F6A95EAF7822B40
:1002F0008BBB089588B321E030E001C0220F6A95DE
:10030000EAF7822B88BB089585B321E030E001C075
:10031000220F6A95EAF7822B85BB089582B321E00C
:1003200030E001C0220F6A95EAF7822B82BB089564
:100330004111FDCF823099F018F4813031F00895E9
:100340008330B9F08430F9F008952BB381E090E068
:1003500001C0880F6A95EAF780958223C9CF28B338
:1003600081E090E001C0880F6A95EAF780958223CA
:10037000C9CF25B381E090E001C0880F6A95EAF704
:1003800080958223C9CF22B381E090E001C0880F1D
:100390006A95EAF780958223C9CF683028F48230C5
:1003A000A9F020F4813041F0892F0895833081F045
:1003B0008430D1F780B301C089B390E002C0959535
:1003C00087956A95E2F7982F9170EECF86B3F5CFB7
:1003D00083B3F3CF683090F5823099F018F4813010
:1003E00031F008958330B9F08430F9F008958BB37B
:1003F00021E030E001C0220F6A95EAF782278BBB2B
:10040000089588B321E030E001C0220F6A95EAF731
:10041000822788BB089585B321E030E001C0220F18
:100420006A95EAF7822785BB089582B321E030E020
:1004300001C0220F6A95EAF7822782BB08958230B5
:1004400059F018F4813031F00895833039F0843058
:1004500039F008956ABB089567BB089564BB089599
:1004600061BB0895823059F018F4813031F008955D
:10047000833039F0843039F008956BBB089568BB40
:10048000089565BB089562BB0895823069F018F441
:10049000813031F00895833059F0843069F0089547
:1004A0008BB380958BBB089588B3809588BB0895E6
:1004B00085B3809585BB089582B3809582BB0895EE
:1004C000823069F020F4813041F0892F0895833023
:1004D00041F08430D1F790B3F8CF99B3F6CF96B30B
:1004E000F4CF93B3F2CF0E945C000E94DE0040E0A4
:1004F00060E084E00E94F50060E081E00E94CD00B1
:1005000080E690E00E94B8000E94EF0060E0813435
:10051000910579F482E00E94CD008AE690E00E9485
:10052000B80068E082E00E94CD0081E40E949D0056
:10053000EBCF8734910569F482E00E94CD008AE612
:1005400090E00E94B80068E082E00E94CD0087E45D
:10055000EDCF82E00E94CD008AE690E00E94B800D4
:1005600063E082E00E94CD008BE790E0CBCFF8946F
:02057000FFCFBB
:1005720052782044617461203A00202020202020FB
:1005820020202020202020202020004E6F20527882
:06059200204368617200C5
:00000001FF
