:100000000C942A000C943C000C943C000C943C0092
:100010000C943C000C943C000C943C000C943C0070
:100020000C943C000C943C000C940A010C94780055
:100030000C943C000C943C000C943C000C943C0050
:100040000C943C000C943C000C943C000C943C0040
:100050000C943C0011241FBECFE5D4E0DEBFCDBF21
:1000600020E0A0E6B0E001C01D92A936B207E1F79A
:100070000E9417090C94810A0C940000CF93DF931F
:10008000CDB7DEB783E590E0FC01208183E590E009
:100090002F7BFC01208383E590E0FC01208183E538
:1000A00090E0277FFC01208382E590E020ECFC01BA
:1000B000208389E590E0FC01208189E590E02160C2
:1000C000FC01208383E590E0FC01208183E590E042
:1000D000287FFC01208383E590E0FC01208183E5FB
:1000E00090E02160FC0120830000DF91CF91089512
:1000F0001F920F920FB60F9211242F933F934F939D
:100100005F936F937F938F939F93AF93BF93EF937F
:10011000FF93CF93DF93CDB7DEB7809160009091CE
:100120006100A0916200B09163000196A11DB11D14
:100130008093600090936100A0936200B09363008D
:100140008091600090916100A0916200B091630085
:1001500083349F40A105B10579F40E944A0982E5E4
:1001600090E020ECFC01208310926000109261006E
:1001700010926200109263000000DF91CF91FF9116
:10018000EF91BF91AF919F918F917F916F915F910F
:100190004F913F912F910F900FBE0F901F90189588
:1001A000CF93DF93CDB7DEB783E590E0FC012081EC
:1001B00083E590E02F7BFC01208383E590E0FC0148
:1001C000208183E590E02860FC0120838CE590E0AD
:1001D0002AEFFC01208389E590E0FC01208189E57C
:1001E00090E02260FC01208383E590E0FC01208107
:1001F00083E590E0287FFC01208383E590E0FC010B
:10020000208183E590E02160FC0120830000DF91E4
:10021000CF9108951F920F920FB60F9211242F9332
:100220003F934F935F936F937F938F939F93AF937E
:10023000BF93EF93FF93CF93DF93CDB7DEB780915A
:10024000640090916500A0916600B09167000196EE
:10025000A11DB11D8093640090936500A09366007A
:10026000B09367008091640090916500A091660052
:10027000B0916700803A9F40A105B10551F40E94FA
:100280004A09109264001092650010926600109264
:1002900067000000DF91CF91FF91EF91BF91AF9187
:1002A0009F918F917F916F915F914F913F912F918E
:1002B0000F900FBE0F901F901895CF93DF93CDB77F
:1002C000DEB78FE590E0FC0120818FE590E02068AB
:1002D000FC0120830000DF91CF910895CF93DF933D
:1002E000CDB7DEB78FE590E0FC0120818FE590E08F
:1002F0002F77FC0120830000DF91CF910895CF93E9
:10030000DF931F92CDB7DEB7898300000F90DF9196
:10031000CF910895CF93DF931F92CDB7DEB7898336
:1003200000000F90DF91CF910895CF93DF931F923C
:10033000CDB7DEB789838981823051F484E590E0BE
:10034000FC01208184E590E02F7BFC0120830CC020
:100350008981833049F484E590E0FC01208184E5C3
:1003600090E02064FC0120838BE590E0FC0120817B
:100370008BE590E02062FC01208300000F90DF916C
:10038000CF910895CF93DF9300D01F92CDB7DEB702
:1003900089836A834B838A81883008F0E2C08B812D
:1003A000813009F06BC08981882F90E082309105FF
:1003B00019F1833091051CF4019741F0D2C08330CC
:1003C000910581F1049709F443C0CBC08AE390E022
:1003D000FC018081482F8A81282F30E081E090E065
:1003E00002C0880F991F2A95E2F7242F282B8AE351
:1003F00090E0FC012083B5C087E390E0FC018081A0
:10040000482F8A81282F30E081E090E002C0880FD9
:10041000991F2A95E2F7242F282B87E390E0FC010F
:1004200020839FC084E390E0FC018081482F8A8173
:10043000282F30E081E090E002C0880F991F2A95B4
:10044000E2F7242F282B84E390E0FC01208389C06D
:1004500081E390E0FC018081482F8A81282F30E0E1
:1004600081E090E002C0880F991F2A95E2F7242FBF
:10047000282B81E390E0FC01208373C08B818823CB
:1004800009F06FC08981882F90E08230910521F1B9
:10049000833091051CF4019741F063C083309105CE
:1004A00091F1049709F446C05CC08AE390E0FC0136
:1004B0008081482F8A81282F30E081E090E002C0BF
:1004C000880F991F2A95E2F78095242F28238AE325
:1004D00090E0FC01208345C087E390E0FC0180812F
:1004E000482F8A81282F30E081E090E002C0880FF9
:1004F000991F2A95E2F78095242F282387E390E01F
:10050000FC0120832EC084E390E0FC018081482F11
:100510008A81282F30E081E090E002C0880F991F87
:100520002A95E2F78095242F282384E390E0FC01AC
:10053000208317C081E390E0FC018081482F8A81ED
:10054000282F30E081E090E002C0880F991F2A95A3
:10055000E2F78095242F282381E390E0FC0120839B
:10056000000000000F900F900F90DF91CF91089541
:10057000CF93DF9300D01F92CDB7DEB789836A8314
:100580004B838A81883008F0E2C08B81813009F08A
:100590006BC08981882F90E08230910519F18330FA
:1005A00091051CF4019741F0D2C08330910581F18F
:1005B000049709F443C0CBC08BE390E0FC01808139
:1005C000482F8A81282F30E081E090E002C0880F18
:1005D000991F2A95E2F7242F282B8BE390E0FC014A
:1005E0002083B5C088E390E0FC018081482F8A8198
:1005F000282F30E081E090E002C0880F991F2A95F3
:10060000E2F7242F282B88E390E0FC0120839FC091
:1006100085E390E0FC018081482F8A81282F30E01B
:1006200081E090E002C0880F991F2A95E2F7242FFD
:10063000282B85E390E0FC01208389C082E390E0D1
:10064000FC018081482F8A81282F30E081E090E0F2
:1006500002C0880F991F2A95E2F7242F282B82E3E6
:1006600090E0FC01208373C08B81882309F06FC068
:100670008981882F90E08230910521F183309105A6
:100680001CF4019741F063C08330910591F1049708
:1006900009F446C05CC08BE390E0FC018081482FE8
:1006A0008A81282F30E081E090E002C0880F991FF6
:1006B0002A95E2F78095242F28238BE390E0FC0114
:1006C000208345C088E390E0FC018081482F8A8127
:1006D000282F30E081E090E002C0880F991F2A9512
:1006E000E2F78095242F282388E390E0FC01208303
:1006F0002EC085E390E0FC018081482F8A81282F5D
:1007000030E081E090E002C0880F991F2A95E2F75F
:100710008095242F282385E390E0FC01208317C0D7
:1007200082E390E0FC018081482F8A81282F30E00D
:1007300081E090E002C0880F991F2A95E2F780952A
:10074000242F282382E390E0FC0120830000000096
:100750000F900F900F90DF91CF910895CF93DF937B
:1007600000D01F92CDB7DEB78A836B838B81883030
:1007700008F056C08A81882F90E082309105E9F018
:10078000833091051CF4019739F04BC083309105FB
:1007900029F10497A1F145C089E390E0FC01808133
:1007A000882F90E02B81222F30E002C0959587950D
:1007B0002A95E2F78170898334C086E390E0FC01DA
:1007C0008081882F90E02B81222F30E002C0959508
:1007D00087952A95E2F78170898323C083E390E0AF
:1007E000FC018081882F90E02B81222F30E002C015
:1007F000959587952A95E2F78170898312C080E3E9
:1008000090E0FC018081882F90E02B81222F30E046
:1008100002C0959587952A95E2F78170898301C07A
:10082000000089810F900F900F90DF91CF91089574
:10083000CF93DF9300D0CDB7DEB789836A838981F8
:10084000882F90E08230910591F0833091051CF45F
:10085000019739F01EC08330910579F0049799F023
:1008600018C08AE390E02A81FC01208312C087E34C
:1008700090E02A81FC0120830CC084E390E02A816F
:10088000FC01208306C081E390E02A81FC012083E3
:10089000000000000F900F90DF91CF910895CF934B
:1008A000DF9300D0CDB7DEB789836A838981882F33
:1008B00090E08230910591F0833091051CF401970E
:1008C00039F01EC08330910579F0049799F018C073
:1008D0008BE390E02A81FC01208312C088E390E042
:1008E0002A81FC0120830CC085E390E02A81FC0171
:1008F000208306C082E390E02A81FC01208300006F
:1009000000000F900F90DF91CF910895CF93DF9368
:1009100000D0CDB7DEB78A838A81882F90E08230FD
:10092000910591F0833091051CF4019739F01EC0B8
:100930008330910579F0049799F018C089E390E02D
:10094000FC018081898312C086E390E0FC018081F4
:1009500089830CC083E390E0FC018081898306C019
:1009600080E390E0FC0180818983000089810F9001
:100970000F90DF91CF910895CF93DF93CDB7DEB77E
:1009800086E290E0FC01208186E290E0277FFC0176
:10099000208386E290E0FC01208186E290E02F7DBA
:1009A000FC01208387E290E0FC01208187E290E057
:1009B0002F77FC01208387E290E0FC01208187E211
:1009C00090E02064FC01208387E290E0FC0120811C
:1009D00087E290E02F7DFC01208386E290E0FC011D
:1009E000208186E290E02160FC01208386E290E095
:1009F000FC01208186E290E02260FC01208386E2F7
:100A000090E0FC01208186E290E02B7FFC012083B6
:100A100086E290E0FC01208186E290E02068FC0103
:100A200020830000DF91CF910895CF93DF931F9231
:100A3000CDB7DEB7898389818770898387E290E0AB
:100A4000FC01308187E290E02981232BFC01208387
:100A500086E290E0FC01208186E290E02064FC01C7
:100A60002083000086E290E0FC01808182958F70F7
:100A7000882F90E081709927892BA1F386E290E07E
:100A8000FC01208186E290E02061FC01208384E269
:100A900090E0FC01808191810F90DF91CF910895CA
:100AA0000F931F93CF93DF93CDB7DEB7C654D10911
:100AB0000FB6F894DEBF0FBECDBF41E060E084E02A
:100AC0000E94C20141E061E084E00E94C20141E075
:100AD00062E084E00E94C2016FEF82E00E9418048D
:100AE00080E090E0ACE0B2E489AF9AAFABAFBCAFCE
:100AF00020E030E04AE753E469AD7AAD8BAD9CADC0
:100B00000E94EC09DC01CB019E01235C3F4FF901FF
:100B100080839183A283B38320E030E040E85FE3E9
:100B2000CE01CD96FC0160817181828193810E940A
:100B3000660988234CF4CE018F5B9F4F21E030E0A3
:100B4000FC013183208367C020E03FEF4FE757E48B
:100B5000CE01CD96FC0160817181828193810E94DA
:100B6000E70918160CF046C020E030E040E251E4FE
:100B700069AD7AAD8BAD9CAD0E94EC09DC01CB0177
:100B80008E010F5B1F4FBC01CD010E946B09DC0180
:100B9000CB01F8019183808324C0CE018D5B9F4FF0
:100BA00029E130E0FC0131832083CE018D5B9F4F32
:100BB000FC01808191810197F1F79E012D5B3F4FF0
:100BC000F90191838083CE018F5B9F4F9E012F5B44
:100BD0003F4FF9012081318121503109FC013183DE
:100BE0002083CE018F5B9F4FFC0180819181892BF7
:100BF000A1F62BC08E010F5B1F4FCE01CD96FC01DD
:100C000060817181828193810E946B09DC01CB013B
:100C1000F80191838083CE018B5B9F4F9E012F5BF8
:100C20003F4FF90120813181FC0131832083CE01C6
:100C30008B5B9F4FFC01808191810197F1F79E01B1
:100C40002B5B3F4FF9019183808388E30E94060864
:100C500080E090E0A0E8BFE38BA79CA7ADA7BEA76C
:100C600020E030E04AE753E46BA57CA58DA59EA566
:100C70000E94EC09DC01CB018FA798ABA9ABBAAB02
:100C800020E030E040E85FE36FA578A989A99AA940
:100C90000E94660988232CF481E090E09CAB8BAB2A
:100CA0003FC020E03FEF4FE757E46FA578A989A93F
:100CB0009AA90E94E70918164CF520E030E040E2BE
:100CC00051E46BA57CA58DA59EA50E94EC09DC01D5
:100CD000CB01BC01CD010E946B09DC01CB019CABB7
:100CE0008BAB0FC089E190E09EAB8DAB8DA99EA927
:100CF0000197F1F79EAB8DAB8BA99CA901979CAB9B
:100D00008BAB8BA99CA9892B69F714C06FA578A917
:100D100089A99AA90E946B09DC01CB019CAB8BAB22
:100D20008BA99CA998AF8FAB8FA998AD0197F1F7CC
:100D300098AF8FAB8EE00E94060880E090E0A0E8BC
:100D4000BFE38D8F9E8FAF8FB8A320E030E04AE7DE
:100D500053E46D8D7E8D8F8D98A10E94EC09DC018E
:100D6000CB0189A39AA3ABA3BCA320E030E040E869
:100D70005FE369A17AA18BA19CA10E9466098823E7
:100D80002CF481E090E09EA38DA33FC020E03FEFD4
:100D90004FE757E469A17AA18BA19CA10E94E709C2
:100DA00018164CF520E030E040E251E46D8D7E8D68
:100DB0008F8D98A10E94EC09DC01CB01BC01CD0113
:100DC0000E946B09DC01CB019EA38DA30FC089E1BA
:100DD00090E098A78FA38FA198A50197F1F798A706
:100DE0008FA38DA19EA101979EA38DA38DA19EA1EE
:100DF000892B69F714C069A17AA18BA19CA10E94DB
:100E00006B09DC01CB019EA38DA38DA19EA19AA7A6
:100E100089A789A59AA50197F1F79AA789A781E0E3
:100E20000E94060880E090E0A0E0B0E48F87988BF5
:100E3000A98BBA8B20E030E04AE753E46F857889CC
:100E400089899A890E94EC09DC01CB018B8B9C8BF0
:100E5000AD8BBE8B20E030E040E85FE36B897C899E
:100E60008D899E890E94660988232CF481E090E098
:100E7000988F8F8B3FC020E03FEF4FE757E46B899F
:100E80007C898D899E890E94E70918164CF520E01F
:100E900030E040E251E46F85788989899A890E941F
:100EA000EC09DC01CB01BC01CD010E946B09DC0126
:100EB000CB01988F8F8B0FC089E190E09A8F898F3B
:100EC000898D9A8D0197F1F79A8F898F8F89988DE7
:100ED0000197988F8F8B8F89988D892B69F714C014
:100EE0006B897C898D899E890E946B09DC01CB010D
:100EF000988F8F8B8F89988D9C8F8B8F8B8D9C8DEE
:100F00000197F1F79C8F8B8F86E00E94060880E0A6
:100F100090E0A0E8BFE389839A83AB83BC8320E0A1
:100F200030E04AE753E469817A818B819C810E9499
:100F3000EC09DC01CB018D839E83AF83B88720E071
:100F400030E040E85FE36D817E818F8198850E946B
:100F5000660988232CF481E090E09A8789873FC056
:100F600020E03FEF4FE757E46D817E818F819885C8
:100F70000E94E70918164CF520E030E040E251E409
:100F800069817A818B819C810E94EC09DC01CB0113
:100F9000BC01CD010E946B09DC01CB019A878987D6
:100FA0000FC089E190E09C878B878B859C8501979A
:100FB000F1F79C878B8789859A8501979A8789871E
:100FC00089859A85892B69F714C06D817E818F810F
:100FD00098850E946B09DC01CB019A8789878985F6
:100FE0009A859E878D878D859E850197F1F79E87CF
:100FF0008D870000CA5BDF4F0FB6F894DEBF0FBECF
:10100000CDBFDF91CF911F910F910895CF93DF93C3
:101010001F92CDB7DEB7898340E060E084E00E9494
:10102000B80240E061E084E00E94B80241E062E082
:1010300084E00E94B802698182E00E944F0440E08F
:1010400062E084E00E94B80200000F90DF91CF912F
:101050000895CF93DF931F92CDB7DEB7898341E028
:1010600060E084E00E94B80240E061E084E00E9419
:10107000B80241E062E084E00E94B802698182E047
:101080000E944F0440E062E084E00E94B802000049
:101090000F90DF91CF910895CF93DF9300D01F92EF
:1010A000CDB7DEB79B838A8319828A819B81892B86
:1010B000D1F00EC08981882F90E02A813B81820F78
:1010C000931FFC0180810E94290889818F5F898399
:1010D0008981882F90E02A813B81820F931FFC0138
:1010E0008081882339F700000F900F900F90DF91D7
:1010F000CF910895CF93DF93CDB7DEB761970FB649
:10110000F894DEBF0FBECDBF888B698B19828889AA
:10111000882F90E08130910519F0029721F007C0E7
:101120008989898304C08989805C898300008981D9
:1011300080580E94060880E090E0A0E8BFE38A8320
:101140009B83AC83BD8320E030E04AE753E46A81AF
:101150007B818C819D810E94EC09DC01CB018E8317
:101160009F83A887B98720E030E040E85FE36E8185
:101170007F81888599850E94660988232CF481E007
:1011800090E09B878A873FC020E03FEF4FE757E41E
:101190006E817F81888599850E94E70918164CF534
:1011A00020E030E040E251E46A817B818C819D81C6
:1011B0000E94EC09DC01CB01BC01CD010E946B094E
:1011C000DC01CB019B878A870FC089E190E09D8776
:1011D0008C878C859D850197F1F79D878C878A8503
:1011E0009B8501979B878A878A859B85892B69F7D1
:1011F00014C06E817F81888599850E946B09DC010E
:10120000CB019B878A878A859B859F878E878E8562
:101210009F850197F1F79F878E87000061960FB633
:10122000F894DEBF0FBECDBFDF91CF910895CF936D
:10123000DF931F92CDB7DEB740E060E082E00E940E
:10124000C20141E060E082E00E94B80241E060E05B
:1012500081E00E94C20141E065E081E00E94C2019C
:101260000E94D0000E945D0181E0898360E082E0FD
:101270000E94AE0389838981882331F441E060E0D4
:1012800081E00E94B802F2CF40E060E081E00E947D
:10129000B802ECCFCF93DF93CDB7DEB78091680073
:1012A000882349F481E08093680041E065E081E0B3
:1012B0000E94B80207C01092680040E065E081E03B
:1012C0000E94B8020000DF91CF9108950E949A0910
:1012D00008F481E008950E94C60988F09F5798F0AD
:1012E000B92F9927B751B0F0E1F0660F771F881F2B
:1012F000991F1AF0BA95C9F714C0B13091F00E9445
:10130000E009B1E008950C94E009672F782F882751
:10131000B85F39F0B93FCCF3869577956795B3956B
:10132000D9F73EF490958095709561957F4F8F4FDA
:101330009F4F0895990F0008550FAA0BE0E8FEEFA4
:1013400016161706E807F907C0F012161306E40789
:10135000F50798F0621B730B840B950B39F40A2682
:1013600061F0232B242B252B21F408950A2609F460
:10137000A140A6958FEF811D811D089557FD9058BE
:10138000440F551F59F05F3F71F04795880F97FB49
:10139000991F61F09F3F79F0879508951216130603
:1013A0001406551FF2CF4695F1DF08C01616170632
:1013B0001806991FF1CF8695710561050894089567
:1013C000E894BB2766277727CB0197F908950E94F9
:1013D0009A0908F48FEF08950E94FF090C94700A8F
:1013E0000E94620A38F00E94690A20F0952311F0E9
:1013F0000C94590A0C945F0A11240C94E1090E9480
:10140000BE0970F3959FC1F3950F50E0551F629F81
:10141000F001729FBB27F00DB11D639FAA27F00D4D
:10142000B11DAA1F649F6627B00DA11D661F829F74
:101430002227B00DA11D621F739FB00DA11D621F59
:10144000839FA00D611D221F749F3327A00D611D76
:10145000231F849F600D211D822F762F6A2F112458
:101460009F5750409AF0F1F088234AF0EE0FFF1F8B
:10147000BB1F661F771F881F91505040A9F79E3FE2
:10148000510580F00C94590A0C94E1095F3FE4F394
:10149000983ED4F3869577956795B795F795E79538
:1014A0009F5FC1F7FE2B880F911D9695879597F941
:1014B000089597F99F6780E870E060E008959FEFD6
:1014C00080EC089500240A941616170618060906DB
:1014D000089500240A9412161306140605060895AA
:1014E000092E0394000C11F4882352F0BB0F40F432
:1014F000BF2B11F460FF04C06F5F7F4F8F4F9F4F72
:061500000895F894FFCFEE
:00000001FF
